:10002600000000000000002020202020002050506A
:1000360050000000005050F850F850502078A07042
:1000460028F020C0C810204098186090A040A890C2
:100056006860204000000000102040404020104012
:100066002010101020400020A870A820000020209A
:10007600F820200000000000602040000000F8008A
:1000860000000000000000606000081020408000B2
:10009600708898A8C88870206020202020707088FA
:1000A60008102040F8F81020100888701030509082
:1000B600F81010F880F008088870304080F08888C2
:1000C60070F80810204040407088887088887070EA
:1000D6008888780808300060600060600000606012
:1000E60000602040102040804020100000F800F8FA
:1000F60000004020100810204070880810200020C2
:1001060070880868A8A87070888888F88888F08839
:1001160088F08888F070888080808870E090888871
:100126008890E0F88080F08080F8F88080F0808009
:1001360080708880B8888870888888F888888870F1
:10014600202020202070381010101090608890A079
:10015600C0A09088808080808080F888D8A8A888F1
:1001660088888888C8A898888870888888888870C9
:10017600F08888F080808070888888A89068F088E9
:1001860088F0A09088788080700808F0F8202020F9
:100196002020208888888888887088888888885061
:1001A6002088888888A8A850888850205088888801
:1001B600888850202020F80810204080F8704040A1
:1001C6004040407000804020100800701010101051
:1001D600107020508800000000000000000000F8A9
:1001E60040201000000000000070087888788080A9
:1001F60080B0C888F00000708080887008080868A1
:1002060098887800007088F88070304840E0404058
:1002160040007888887808708080B0C88888880010
:100226002000202020201000301010906080809048
:10023600A0C0A090602020202020700000D0A8A898
:1002460088880000B0C88888880000708888887010
:100256000000F088F08060000068987808080000C8
:10026600B0C8808080000070807008F02020F820E0
:1002760020281000008888889868000088888850A0
:10028600200000A8A8A8A850000088502050880088
:100296000088887808700000F8102040F8102020A8
:1002A6004020201020202020202020402020102028
:1002B600204040A8A810000000F8F8F8F8F8F8F870
:1002C6000000000000000000202020202000200068
:1002D60050505000000000005050F850F8505000A8
:1002E6002078A07028F02000C0C810204098180080
:1002F6006090A040A89068006020400000000000C8
:1003060010204040402010004020101010204000D7
:100316000020A870A8200000002020F8202000005F
:100326000000000060204000000000F8000000000F
:1003360000000000006060000008102040800000FF
:10034600708898A8C888700020602020202070003F
:10035600708808102040F800F810201008887000F7
:1003660010305090F8101000F880F00808887000DF
:10037600304080F088887000F80810204040400027
:1003860070888870888870007088887808083000BF
:100396000060600060600000006060006020400057
:1003A60010204080402010000000F800F8000000F7
:1003B60040201008102040007088081020002000FF
:1003C60070880868A8A8700070888888F8888800EF
:1003D600F08888F08888F0007088808080887000B7
:1003E600E09088888890E000F88080F08080F800AF
:1003F600F88080F080808000708880B888887000DF
:10040600888888F88888880070202020202070003E
:1004160038101010109060008890A0C0A09088003E
:10042600808080808080F80088D8A8A88888880086
:100436008888C8A898888800708888888888700006
:10044600F08888F08080800070888888A89068008E
:10045600F08888F0A0908800788080700808F00006
:10046600F82020202020200088888888888870002E
:10047600888888888850200088888888A8A850009E
:10048600888850205088880088888850202020003E
:10049600F80810204080F80070404040404070004E
:1004A600008040201008000070101010101070001E
:1004B6002050880000000000000000000000F80046
:1004C60040201000000000000000700878887800C6
:1004D600808080B0C888F00000007080808870003E
:1004E600080808689888780000007088F88070000E
:1004F600304840E040404000007888887808700026
:100506008080B0C888888800002000202020200035
:100516001000301010906000808090A0C0A0900065
:1005260060202020202070000000D0A8A888880025
:100536000000B0C88888880000007088888870002D
:100546000000F088F08060000000689878080800D5
:100556000000B0C880808000000070807008F00045
:100566002020F8202028100000008888889868003D
:1005760000008888885020000000A8A8A8A850007D
:100586000000885020508800000088887808700095
:100596000000F8102040F800102020402020100015
:1005A6002020202020202000402020102020400055
:1005B60040A8A81000000000F8F8F8F8F8F8F800CD
:1005C60000000000000000000000000000101010F5
:1005D6001010000010000000006C484800000000E9
:1005E60000000000001414287C287C2850500000CD
:1005F600001038404038487010100000002050208D
:100606000C70081408000000000000182020544850
:100616003400000000101010100000000000000060
:1006260000080810101010101008080000202010F4
:10063600101010101020200000107C102828000038
:10064600000000000000101010FC10101000000048
:10065600000000000000001810302000000000001C
:10066600007C0000000000000000000000000030D8
:10067600300000000004040808101020204000008C
:10068600003844444444444438000000003010100C
:10069600101010107C00000000384404081020449C
:1006A6007C000000003844041804044438000000AC
:1006B600000C141424447C040C000000003C202090
:1006C6003804044438000000001C204078444444A8
:1006D60038000000007C44040808081010000000E0
:1006E6000038444438444444380000000038444448
:1006F600443C040870000000000000303000003068
:10070600300000000000001818000018302000001B
:1007160000000C10608060100C000000000000005B
:100726007C007C00000000000000C0201804182097
:10073600C00000000000182404081000300000006B
:100746003844444C54544C4044380000003010287F
:1007560028287C44EC00000000F8444478444444D3
:10076600F8000000003C444040404044380000008F
:1007760000F0484444444448F000000000FC445063
:1007860070504044FC000000007C202838282020BF
:1007960070000000003C4440404C444438000000D7
:1007A60000EC44447C444444EC000000007C1010FF
:1007B600101010107C000000003C0808084848484B
:1007C6003000000000EC444850704844E40000004B
:1007D60000702020202024247C00000000EC6C6C9B
:1007E60054544444EC00000000EC64645454544CEB
:1007F600EC000000003844444444444438000000FF
:100806000078242424382020700000000038444456
:1008160044444444381C000000F8444444784844A6
:10082600E000000000344C40380404645800000026
:1008360000FC9010101010103800000000EC44442A
:10084600444444443800000000EC4444282828105E
:100856001000000000EC4444545454542800000096
:1008660000C4442810102844C400000000EC4428AA
:100876002810101038000000007C44081010204496
:100886007C00000000382020202020202020380076
:100896000040202020101008080800000038080832
:1008A600080808080808380000101028440000004E
:1008B600000000000000000000000000000000FC36
:1008C60000100800000000000000000000000038D2
:1008D600443C44443C00000000C040586444444446
:1008E600F80000000000003C44404044380000008E
:1008F600000C04344C4444443C0000000000003822
:10090600447C40403C000000001C207C202020202D
:100916007C000000000000344C4444443C04380091
:1009260000C0405864444444EC00000000100070CD
:10093600101010107C00000000100078080808084D
:100946000808700000C0405C48705048DC00000099
:1009560000301010101010107C000000000000E89D
:1009660054545454FC000000000000D8644444442D
:10097600EC00000000000038444444443800000005
:10098600000000D8644444447840E000000000348D
:100996004C4444443C040C000000006C30202020F1
:1009A6007C0000000000003C44380444780000004D
:1009B6000000207C202020201C000000000000CC2D
:1009C6004444444C34000000000000EC4444282811
:1009D60010000000000000EC4454545428000000AD
:1009E600000000CC48303048CC000000000000EC8D
:1009F60044242818101078000000007C4810204479
:100A06007C000000000810101010201010100800C4
:100A16000010101010101010101000000020101000
:100A260010100810101020000000000000245800CC
:100A36000000000000000000002458000000000034
:100A460000000000000000000000000000000000A0
:100A5600101010101010100010100000006C24244C
:100A66004800000000000000000000000A0A0A7E9C
:100A760014147E28282800000000083C4A4A281C36
:100A86000A4A4A3C08000000324A4C3808101C3218
:100A9600524C000000001824242418324A444C32D8
:100AA6000000001808081000000000000000000008
:100AB6000002040808101010101008080402004074
:100AC6002010100808080808101020400000082A06
:100AD6001C081C2A0800000000000000000010107E
:100AE600107C101010000000000000000000000044
:100AF600000030101020000000000000007E000002
:100B06000000000000000000000000000000081CBB
:100B160008000002020404080808101020204040C3
:100B260000001824424242424242241800000000BB
:100B36000818080808080808081C000000003C42BD
:100B4600420204040810207E000000003C424202DB
:100B56001C020242423C00000000040C141424242F
:100B6600447E0404000000007E40407C42020242B3
:100B7600423C000000001C2242405C624242423C71
:100B8600000000007E424404080808080808000027
:100B960000003C42422418244242423C000000002D
:100BA6003C424242463A02424438000000000000FD
:100BB600081C080000081C080000000000000018BF
:100BC6001800001808081000000000040810204053
:100BD60020100804000000000000007E00007E00D7
:100BE600000000000000004020100804081020400B
:100BF600000000003C424204080808000808000003
:100C060000001C224E525252524E201E000000007E
:100C160018244242427E42424242000000007C22A8
:100C260022223C222222227C000000003C4242403A
:100C360040404042423C000000007C222222222208
:100C46002222227C000000007E4040407840404046
:100C5600407E000000007E404040784040404040DA
:100C6600000000003C424240404E4242463A0000EC
:100C76000000424242427E4242424242000000009E
:100C86003E08080808080808083E000000000E0490
:100C9600040404040444443800000000424448505C
:100CA60060504844424200000000404040404040FE
:100CB6004040407E000000004266665A5A42424268
:100CC60042420000000042426262524A46464242A6
:100CD600000000003C42424242424242423C000086
:100CE60000007C424242427C4040404000000000FE
:100CF6003C4242424242724A463C040200007C4266
:100D06004242427C48444242000000003C4242408B
:100D1600300C0242423C00000000FE101010101081
:100D2600101010100000000042424242424242426D
:100D3600423C000000004242424224242418181873
:100D46000000000042424242425A5A666642000091
:100D560000004242242418182424424200000000C5
:100D660044444428281010101010000000007E0291
:100D7600040808102020407E0000001E10101010ED
:100D8600101010101010101E0040402020101010DF
:100D96000808040402020078080808080808080879
:100DA600080808780018244200000000000000002F
:100DB6000000000000000000000000000000007EAF
:100DC600000C0808040000000000000000000000FD
:100DD6000000003C420E3242463A0000000040400D
:100DE600405C62424242625C000000000000003C3F
:100DF60042404040423C000000000202023A4642A5
:100E06004242463A000000000000003C42427E405A
:100E1600423C000000000C1210107C101010101044
:100E2600000000000000003A44444438205C423C84
:100E360000004040405C62424242424200000000E4
:100E46000808001808080808083E00000000040406
:100E5600000C0404040404444438000040404044A8
:100E66004850704844420000000018080808080866
:100E76000808083E0000000000000068545454545E
:100E86005444000000000000005C624242424242BC
:100E9600000000000000003C42424242423C00008A
:100EA60000000000005C62424242625C404000007A
:100EB6000000003A46424242463A02020000000062
:100EC600005C624240404040000000000000003CE0
:100ED60042201804423C000000001010107C101044
:100EE6001010120C00000000000000424242424274
:100EF600463A000000000000004444442828101030
:100F060000000000000000444454545454280000DB
:100F16000000000000424224182442420000000063
:100F260000000042424242463A02423C00000000B3
:100F3600007E04081010207E00000006080808083D
:100F460008100808080808060010101010101010E5
:100F56001010101010100060101010101008101053
:100F6600101010600020524A04000000000000002B
:100F76000000000000000010386CC6C6FE0000002D
:100F8600000000000000000000000000000000005B
:100F96000000183C3C3C1818180018180000000007
:100FA60000666666240000000000000000000000E5
:100FB6000000006C6CFE6C6C6CFE6C6C000000003B
:100FC60018187CC6C2C07C060686C67C18180000A7
:100FD60000000000C2C60C183060C6860000000083
:100FE6000000386C6C3876DCCCCCCC760000000087
:100FF60000303030600000000000000000000000FB
:1010060000000C18303030303030180C0000000072
:10101600000030180C0C0C0C0C0C183000000000F2
:101026000000000000663CFF3C6600000000000077
:10103600000000000018187E1818000000000000CC
:101046000000000000000000001818183000000022
:1010560000000000000000FE00000000000000008C
:10106600000000000000000000001818000000004A
:101076000000000002060C183060C080000000006E
:101086000000386CC6C6D6D6C6C66C38000000004E
:1010960000001838781818181818187E0000000074
:1010A60000007CC6060C183060C0C6FE00000000BA
:1010B60000007CC606063C060606C67C000000004C
:1010C60000000C1C3C6CCCFE0C0C0C1E000000003E
:1010D6000000FEC0C0C0FC060606C67C000000007C
:1010E60000003860C0C0FCC6C6C6C67C0000000052
:1010F6000000FEC606060C18303030300000000036
:1011060000007CC6C6C67CC6C6C6C67C00000000FB
:1011160000007CC6C6C67E0606060C7800000000E7
:101126000000000018180000001818000000000059
:101136000000000018180000001818300000000019
:10114600000000060C18306030180C060000000085
:1011560000000000007E00007E000000000000008D
:101166000000006030180C060C183060000000000B
:1011760000007CC6C60C18181800181800000000DD
:101186000000007CC6C6DEDEDEDCC07C000000009F
:10119600000010386CC6C6FEC6C6C6C600000000F3
:1011A6000000FC6666667C66666666FC00000000FB
:1011B60000003C66C2C0C0C0C0C2663C0000000061
:1011C6000000F86C6666666666666CF800000000ED
:1011D6000000FE6662687868606266FE00000000D5
:1011E6000000FE6662687868606060F000000000DB
:1011F60000003C66C2C0C0DEC6C6663A00000000FB
:101206000000C6C6C6C6FEC6C6C6C6C600000000E4
:1012160000003C18181818181818183C0000000090
:1012260000001E0C0C0C0C0CCCCCCC780000000082
:101236000000E666666C78786C6666E6000000007C
:101246000000F06060606060606266FE00000000A2
:101256000000C6EEFEFED6C6C6C6C6C60000000024
:101266000000C6E6F6FEDECEC6C6C6C60000000014
:1012760000007CC6C6C6C6C6C6C6C67C0000000040
:101286000000FC6666667C60606060F0000000003E
:1012960000007CC6C6C6C6C6C6D6DE7C0C0E0000DE
:1012A6000000FC6666667C6C666666E6000000000A
:1012B60000007CC6C660380C06C6C67C000000006E
:1012C60000007E7E5A1818181818183C00000000F6
:1012D6000000C6C6C6C6C6C6C6C6C67C0000000096
:1012E6000000C6C6C6C6C6C6C66C381000000000DA
:1012F6000000C6C6C6C6D6D6D6FEEE6C00000000F6
:101306000000C6C66C7C38387C6CC6C6000000007F
:101316000000666666663C181818183C0000000057
:101326000000FEC6860C183060C2C6FE0000000033
:1013360000003C30303030303030303C00000000AF
:1013460000000080C0E070381C0E0602000000009D
:1013560000003C0C0C0C0C0C0C0C0C3C00000000AF
:1013660010386CC6000000000000000000000000FD
:1013760000000000000000000000000000FF000068
:1013860030301800000000000000000000000000DF
:101396000000000000780C7CCCCCCC76000000006D
:1013A6000000E06060786C666666667C000000009F
:1013B60000000000007CC6C0C0C0C67C0000000063
:1013C60000001C0C0C3C6CCCCCCCCC760000000095
:1013D60000000000007CC6FEC0C0C67C0000000005
:1013E6000000386C6460F060606060F0000000002F
:1013F600000000000076CCCCCCCCCC7C0CCC7800A9
:101406000000E060606C7666666666E600000000D6
:1014160000001818003818181818183C00000000AA
:1014260000000606000E06060606060666663C0070
:101436000000E06060666C78786C66E6000000008C
:1014460000003818181818181818183C0000000062
:101456000000000000ECFED6D6D6D6C6000000007E
:101466000000000000DC6666666666660000000036
:1014760000000000007CC6C6C6C6C67C0000000090
:101486000000000000DC66666666667C6060F00050
:10149600000000000076CCCCCCCCCC7C0C0C1E0022
:1014A6000000000000DC7666606060F0000000006E
:1014B60000000000007CC660380CC67C00000000FE
:1014C6000000103030FC30303030361C0000000098
:1014D6000000000000CCCCCCCCCCCC7600000000C8
:1014E600000000000066666666663C1800000000A4
:1014F6000000000000C6C6D6D6D6FE6C000000006E
:101506000000000000C66C3838386CC600000000C9
:101516000000000000C6C6C6C6C6C67E060CF80099
:101526000000000000FECC183060C6FE000000007F
:1015360000000E18181870181818180E0000000071
:1015460000001818181800181818181800000000BD
:101556000000701818180E181818187000000000EF
:10156600000076DC00000000000000000000000023
:101576000000000010386CC6C6C6FE000000000061
:101586000100010001003FF82108210821083FF869
:101596002108210821083FF8210A0102010200FE64
:1015A60000003FFE200020802080208020802FFC2D
:1015B6002080208020902088208840805FFE800048
:1015C6000100010001003FF82108210821083FF829
:1015D6002108210821083FF8210A0102010200FE24
:1015E6000080204017FE10808110420847FC10043E
:1015F60010002248E24822482248224A244A084645
:10160600004020401040104000400040F7FE1040CF
:101616001040104010401040144018401040004048
:1016260020403E7E489080003FF820083FF8200882
:101636003FF820083FF80820FFFE08201020202051
:10164600100011F011101110FD1011103110391089
:10165600551055109110111211121212120E14007B
:1016660000F83F000400082010403F8001000610EB
:1016760018087FFC01040920111021084504020006
:101686001040104010A010A0FD10120835F63800CA
:1016960054885048924811501110102017FE10001F
:1016A600000427C414441454855445544554155411
:1016B60015542554E5542104228422442414080890
:1016C60000F83F000400082010403F80010006108B
:1016D60018087FFC010409201110210845040200A6
:1016E60010401020202023FE4840F888110423FED5
:1016F6004092F890409000901912E112420E0400B8
:1017060010201220222023244AA8F22013FC222093
:101716004270FAA8432402201A20E22043FE000069
:101726000100010001003FF82108210821083FF8C7
:101736002108210821083FF8210A0102010200FEC2
:1017460000003E7C224422443E7C01200110FFFE24
:1017560002800C603018C0063E7C224422443E7C47
:10176600000427C414441454855445544554155450
:1017760015542554E55421042284224424140808CF
:10178600002820241024102007FE0020F02017E057
:10179600112011101110151019CA170A020600029D
:1017A600102010203D20212041FCBD2012201020B9
:1017B600FDFE1020105010501488188811040202E3
:1017C60002082110100017FC008003F8F20813F835
:1017D600120813F8120813F81208280047FE000032
:1017E600084008200BFE1000100031FC30005000AD
:1017F60091FC1000100011FC1104110411FC1104DD
:1018060000001FF01010101010101FF00000FFFE57
:10181600080010001FF000100010001000A000408B
:1018260000000000000001C00000022000000E3E83
:10183600000032200000C1C003830000044C0000F9
:101846007C700000044C0000038300000000C1C04F
:101856000000322000000E3E00000220000001C001
:1018660000000000000001C0000002200000023E4F
:1018760000000220000001C00380000004400000B8
:101886007C4000000440000003800000000001C00E
:10189600000002200000023E00000220000001C0FD
:1018A60000000000000001C0000002200000023E0F
:1018B60000000220000001C0038000000440000078
:1018C6007C700000044C0000038300000000C1C0CF
:1018D6000000322000000E3E00000220000001C081
:1018E60000000000000001C00000022000000E3EC3
:1018F600000032200000C1C003830000044C000039
:101906007C7000000440000003800000000001C05D
:10191600000002200000023E00000220000001C07C
:0D51A90053B47453B374D2C7C2C3D2C12231
:104FC500E4FEEEC39408748094805016C2C3EF5477
:104FD500806004D2C08002C2C0EF25E0FFD2C30EBC
:024FE50080E06A
:014FE70022A7
:10502E00E4FFD2C1FEEEC39408748094805011EF59
:10503E0025E0FFC2C330C1030F8000D2C30E80E54E
:01504E00223F
:10192600900538EFF0A3ECF0A3EDF0A3EBF0A3EAFB
:04193600F0A3E9F041
:10193A00900539E0FCA3E0FD547F90053EF0AF0529
:10194A00AE04E4FCFD7808122C36900542EFF090C4
:10195A000539E0FEA3E0FF900543EFF0E490054E61
:10196A00F0900538E014B418004003022897901943
:10197A008675F003A4C58325F0C583730219CE02C8
:10198A001AF9021C24021D4F021E7A021F1D021F91
:10199A009C02201F0220A20221450221C4022243E6
:1019AA000222C10223440223C70224620224E10262
:1019BA0025640225E702268A02270902278C0228C3
:1019CA009702280E90053F740CF0A3F0E0FF9005F3
:1019DA0044E4F0A3EFF0A3122C5500000000900598
:1019EA0042E0FF7E00C394A1748094804052D3EFFA
:1019FA0094A9748094805048A3E0C394A1748094FD
:101A0A0080403D900542E0245FFFEE34FFFE3395AF
:101A1A00E0FDFCE47B5EFAF9F8122BE7A804A905BD
:101A2A00AA06AB07900543E0245FFFE434FFFE33C8
:101A3A0095E0FDFCEB2FFFEA3EFEE93DFDE88071F3
:101A4A00900542E0FF7E00C394B0748094805003F6
:101A5A00021AE2D3EF94F774809480507BA3E0C318
:101A6A0094A1748094804070900542E02450FFEE67
:101A7A0034FFFE3395E0FDFCE47B5EFAF9F8122BA5
:101A8A00E7A804A905AA06AB07900543E0245FFF6F
:101A9A00E434FFFE3395E0FDFCEB2FFFEA3EFEE95E
:101AAA003DFDE83CFCEF244EFFEE3403FEE43DFD31
:101ABA00E43CFCE47B18FAF9F8122BE7900546E0BF
:101ACA00F8A3E0F9A3E0FAA3E02FFFEA3EFEE93D1E
:101ADA00FDE83CFCA3122C49900540E02407FFE4F2
:101AEA0033FEEF7803CEC313CE13D8F902288990B8
:101AFA00053F7410F0A3F0E0FF900544E4F0A3EF73
:101B0A00F0A3122C550002C9D0900542E0FF7E00D6
:101B1A00C394A1748094804052D3EF94A9748094A2
:101B2A00805048A3E0C394A174809480403D9005FE
:101B3A0042E0245FFFEE34FFFE3395E0FDFCE47BD8
:101B4A005EFAF9F8122BE7A804A905AA06AB0790D2
:101B5A000543E0245FFFE434FFFE3395E0FDFCEB30
:101B6A002FFFEA3EFEE93DFDE88071900542E0FF65
:101B7A007E00C394B0748094805003021C0DD3EF8E
:101B8A0094F774809480507BA3E0C394A1748094EA
:101B9A00804070900542E02450FFEE34FFFE3395FA
:101BAA00E0FDFCE47B5EFAF9F8122BE7A804A9052C
:101BBA00AA06AB07900543E0245FFFE434FFFE3337
:101BCA0095E0FDFCEB2FFFEA3EFEE93DFDE83CFC1B
:101BDA00EF244EFFEE3403FEE43DFDE43CFCE47BDF
:101BEA0020FAF9F8122BE7900546E0F8A3E0F9A3EA
:101BFA00E0FAA3E02FFFEA3EFEE93DFDE83CFCA344
:101C0A00122C49900540E02407FFE433FEEF7803E5
:101C1A00CEC313CE13D8F902288990053F7418F061
:101C2A00A3F0E0FF900544E4F0A3EFF0A3122C55D3
:101C3A0000068190900542E0FF7E00C394A1748063
:101C4A0094804052D3EF94A9748094805048A3E0C2
:101C5A00C394A174809480403D900542E0245FFFC4
:101C6A00EE34FFFE3395E0FDFCE47B5EFAF9F812F0
:101C7A002BE7A804A905AA06AB07900543E0245F51
:101C8A00FFE434FFFE3395E0FDFCEB2FFFEA3EFE56
:101C9A00E93DFDE88071900542E0FF7E00C394B003
:101CAA00748094805003021D38D3EF94F7748094A3
:101CBA0080507BA3E0C394A1748094804070900507
:101CCA0042E02450FFEE34FFFE3395E0FDFCE47B56
:101CDA005EFAF9F8122BE7A804A905AA06AB079041
:101CEA000543E0245FFFE434FFFE3395E0FDFCEB9F
:101CFA002FFFEA3EFEE93DFDE83CFCEF244EFFEEF5
:101D0A003403FEE43DFDE43CFCE47B48FAF9F812B6
:101D1A002BE7900546E0F8A3E0F9A3E0FAA3E02F49
:101D2A00FFEA3EFEE93DFDE83CFCA3122C49900582
:101D3A0040E02407FFE433FEEF7803CEC313CE134B
:101D4A00D8F902288990053F7420F0A3F0E0FF90AB
:101D5A000544E4F0A3EFF0A3122C55000EDF009027
:101D6A000542E0FF7E00C394A1748094804052D360
:101D7A00EF94A9748094805048A3E0C394A174801E
:101D8A009480403D900542E0245FFFEE34FFFE332D
:101D9A0095E0FDFCE47B5EFAF9F8122BE7A804A9AA
:101DAA0005AA06AB07900543E0245FFFE434FFFE73
:101DBA003395E0FDFCEB2FFFEA3EFEE93DFDE880AE
:101DCA0071900542E0FF7E00C394B0748094805005
:101DDA0003021E63D3EF94F774809480507BA3E0D0
:101DEA00C394A1748094804070900542E02450FF0F
:101DFA00EE34FFFE3395E0FDFCE47B5EFAF9F8125F
:101E0A002BE7A804A905AA06AB07900543E0245FBF
:101E1A00FFE434FFFE3395E0FDFCEB2FFFEA3EFEC4
:101E2A00E93DFDE83CFCEF244EFFEE3403FEE43DC1
:101E3A00FDE43CFCE47B80FAF9F8122BE7900546B6
:101E4A00E0F8A3E0F9A3E0FAA3E02FFFEA3EFEE9F7
:101E5A003DFDE83CFCA3122C49900540E02407FF15
:101E6A00E433FEEF7803CEC313CE13D8F9022889E0
:101E7A0090053F740CF0A37406F0E0FF900544E46B
:101E8A00F0A3EFF0A3122C55001DBE0C900539E00B
:101E9A00FEA3E0FFC394A1EE94AA4015D3EF94FEEB
:101EAA00EE94AA500CE0245FFF900539E034558087
:101EBA0023900539E0FEA3E0FFC394A1EE94AB4062
:101ECA003BD3EF94C0EE94AB5032E024BEFF9005B2
:101EDA0039E03454FEE4FCFD7B0CFAF9F8122BE7E6
:101EEA00900546E0F8A3E0F9A3E0FAA3E02FFFEAA1
:101EFA003EFEE93DFDE83CFCA3122C49900540E07A
:101F0A002407FFE433FEEF7803CEC313CE13D8F9C8
:101F1A0002288990053F740CF0A37406F0E0FF9044
:101F2A000544E4F0A3EFF0A3122C55001DBE009067
:101F3A00053EE0FF7E00C3942074809480403CD329
:101F4A00EF947E748094805032E024E0FFEE34FFF8
:101F5A00FE3395E0FDFCE47B0CFAF9F8122BE790CE
:101F6A000546E0F8A3E0F9A3E0FAA3E02FFFEA3E72
:101F7A00FEE93DFDE83CFCA3122C49900540E02413
:101F8A0007FFE433FEEF7803CEC313CE13D8F9026A
:101F9A00288990054E7401F090053F740CF0A3F067
:101FAA00E0FF900544E4F0A3EFF0A3122C55001DC6
:101FBA00C40090053EE0FF7E00C3942074809480A4
:101FCA00403CD3EF947E748094805032E024E0FF4A
:101FDA00EE34FFFE3395E0FDFCE47B1AFAF9F812C1
:101FEA002BE7900546E0F8A3E0F9A3E0FAA3E02F77
:101FFA00FFEA3EFEE93DFDE83CFCA3122C499005B0
:10200A0040E02407FFE433FEEF7803CEC313CE1378
:10201A00D8F902288990054E7401F090053F740C96
:10202A00F0A3F0E0FF900544E4F0A3EFF0A3122C34
:10203A0055001DCDC090053EE0FF7E00C39420747C
:10204A00809480403CD3EF947E748094805032E038
:10205A0024E0FFEE34FFFE3395E0FDFCE47B1AFA40
:10206A00F9F8122BE7900546E0F8A3E0F9A3E0FAA5
:10207A00A3E02FFFEA3EFEE93DFDE83CFCA3122C5B
:10208A0049900540E02407FFE433FEEF7803CEC30E
:10209A0013CE13D8F902288990053F7410F0A3745F
:1020AA0008F0E0FF900544E4F0A3EFF0A3122C55EA
:1020BA00001DD790900539E0FEA3E0FFC394A1EE7E
:1020CA0094AA4015D3EF94FEEE94AA500CE0245F34
:1020DA00FF900539E034558023900539E0FEA3E0EE
:1020EA00FFC394A1EE94AB403BD3EF94C0EE94AB04
:1020FA005032E024BEFF900539E03454FEE4FCFD82
:10210A007B10FAF9F8122BE7900546E0F8A3E0F9FC
:10211A00A3E0FAA3E02FFFEA3EFEE93DFDE83CFC1E
:10212A00A3122C49900540E02407FFE433FEEF7820
:10213A0003CEC313CE13D8F902288990053F741031
:10214A00F0A37408F0E0FF900544E4F0A3EFF0A3D5
:10215A00122C55001DD78090053EE0FF7E00C394E7
:10216A002074809480403CD3EF947E748094805095
:10217A0032E024E0FFEE34FFFE3395E0FDFCE47B21
:10218A0010FAF9F8122BE7900546E0F8A3E0F9A354
:10219A00E0FAA3E02FFFEA3EFEE93DFDE83CFCA39E
:1021AA00122C49900540E02407FFE433FEEF780340
:1021BA00CEC313CE13D8F902288990053F7407F0CD
:1021CA00A37405F0E0FF900544E4F0A3EFF0A31236
:1021DA002C55001DDF8090053EE0FF7E00C3942051
:1021EA0074809480403CD3EF947E74809480503203
:1021FA00E024E0FFEE34FFFE3395E0FDFCE47B08CB
:10220A00FAF9F8122BE7900546E0F8A3E0F9A3E003
:10221A00FAA3E02FFFEA3EFEE93DFDE83CFCA312EB
:10222A002C49900540E02407FFE433FEEF7803CE03
:10223A00C313CE13D8F902288990053F7408F0A376
:10224A0014F0E0FF900544E4F0A3EFF0A3122C553C
:10225A00001DE28090053EE0FF7E00C3942074805A
:10226A009480403CD3EF947E748094805032E02472
:10227A00E0FFEE34FFFE3395E0FDFCE47B08FAF95B
:10228A00F8122BE7900546E0F8A3E0F9A3E0FAA3D9
:10229A00E02FFFEA3EFEE93DFDE83CFCA3122C4993
:1022AA00900540E02407FFE433FEEF7803CEC31322
:1022BA00CE13D8F902288990054E7401F090053F93
:1022CA007410F0A3F0E0FF900544E4F0A3EFF0A34C
:1022DA00122C55001DE58090053EE0FF7E00C39458
:1022EA002074809480403CD3EF947E748094805014
:1022FA0032E024E0FFEE34FFFE3395E0FDFCE47BA0
:10230A0022FAF9F8122BE7900546E0F8A3E0F9A3C0
:10231A00E0FAA3E02FFFEA3EFEE93DFDE83CFCA31C
:10232A00122C49900540E02407FFE433FEEF7803BE
:10233A00CEC313CE13D8F902288990054E7401F042
:10234A0090053F7410F0A3F0E0FF900544E4F0A379
:10235A00EFF0A3122C55001DF24090053EE0FF7EDF
:10236A0000C3942074809480403CD3EF947E7480A0
:10237A0094805032E024E0FFEE34FFFE3395E0FD16
:10238A00FCE47B22FAF9F8122BE7900546E0F8A361
:10239A00E0F9A3E0FAA3E02FFFEA3EFEE93DFDE8FB
:1023AA003CFCA3122C49900540E02407FFE433FECD
:1023BA00EF7803CEC313CE13D8F902288990053FCC
:1023CA007418F0A3740CF0E0FF900544E4F0A3EF56
:1023DA00F0900539E0FEA3E0FFC394A1EE94AA4071
:1023EA0015D3EF94FEEE94AA500CE0245FFF9005FB
:1023FA0039E034558023900539E0FEA3E0FFC39409
:10240A00A1EE94AB403BD3EF94C0EE94AB5032E0D4
:10241A0024BEFF900539E03454FEE4FCFD7B30FA1B
:10242A00F9F8122BE7900546E0F8A3E0F9A3E0FAE1
:10243A00A3E02FFFEA3EFEE93DFDE83CFCA3122C97
:10244A0049900540E02407FFE433FEEF7803CEC34A
:10245A0013CE13D8F902288990053F7418F0A37493
:10246A000CF0E0FF900544E4F0A3EFF0A3122C5522
:10247A00001DFF0090053EE0FF7E00C3942074809B
:10248A009480403CD3EF947E748094805032E02450
:10249A00E0FFEE34FFFE3395E0FDFCE47B30FAF911
:1024AA00F8122BE7900546E0F8A3E0F9A3E0FAA3B7
:1024BA00E02FFFEA3EFEE93DFDE83CFCA3122C4971
:1024CA00900540E02407FFE433FEEF7803CEC31300
:1024DA00CE13D8F902288990054E7401F090053F71
:1024EA007418F0A3F0E0FF900544E4F0A3EFF0A322
:1024FA00122C55001E22D090053EE0FF7E00C394A8
:10250A002074809480403CD3EF947E7480948050F1
:10251A0032E024E0FFEE34FFFE3395E0FDFCE47B7D
:10252A004AFAF9F8122BE7900546E0F8A3E0F9A376
:10253A00E0FAA3E02FFFEA3EFEE93DFDE83CFCA3FA
:10254A00122C49900540E02407FFE433FEEF78039C
:10255A00CEC313CE13D8F902288990054E7401F020
:10256A0090053F7418F0A3F0E0FF900544E4F0A34F
:10257A00EFF0A3122C55001E3E9090053EE0FF7E20
:10258A0000C3942074809480403CD3EF947E74807E
:10259A0094805032E024E0FFEE34FFFE3395E0FDF4
:1025AA00FCE47B4AFAF9F8122BE7900546E0F8A317
:1025BA00E0F9A3E0FAA3E02FFFEA3EFEE93DFDE8D9
:1025CA003CFCA3122C49900540E02407FFE433FEAB
:1025DA00EF7803CEC313CE13D8F902288990053FAA
:1025EA007420F0A37410F0E0FF900544E4F0A3EF28
:1025FA00F0A3122C55001E5A90900539E0FEA3E074
:10260A00FFC394A1EE94AA4015D3EF94FEEE94AAC8
:10261A00500CE0245FFF900539E034558023900583
:10262A0039E0FEA3E0FFC394A1EE94AB403BD3EFA5
:10263A0094C0EE94AB5032E024BEFF900539E034EA
:10264A0054FEE4FCFD7B40FAF9F8122BE7900546AC
:10265A00E0F8A3E0F9A3E0FAA3E02FFFEA3EFEE9DF
:10266A003DFDE83CFCA3122C49900540E02407FFFD
:10267A00E433FEEF7803CEC313CE13D8F9022889C8
:10268A0090053F7420F0A37410F0E0FF900544E435
:10269A00F0A3EFF0A3122C55001E5A5090053EE00D
:1026AA00FF7E00C3942074809480403CD3EF947ED4
:1026BA00748094805032E024E0FFEE34FFFE3395BC
:1026CA00E0FDFCE47B40FAF9F8122BE7900546E0BE
:1026DA00F8A3E0F9A3E0FAA3E02FFFEA3EFEE93D02
:1026EA00FDE83CFCA3122C49900540E02407FFE4D6
:1026FA0033FEEF7803CEC313CE13D8F9022889909C
:10270A00054E7401F090053F7420F0A3F0E0FF90AD
:10271A000544E4F0A3EFF0A3122C55001E99D090C3
:10272A00053EE0FF7E00C3942074809480403CD331
:10273A00EF947E748094805032E024E0FFEE34FF00
:10274A00FE3395E0FDFCE47B82FAF9F8122BE79060
:10275A000546E0F8A3E0F9A3E0FAA3E02FFFEA3E7A
:10276A00FEE93DFDE83CFCA3122C49900540E0241B
:10277A0007FFE433FEEF7803CEC313CE13D8F90272
:10278A00288990054E7401F090053F7420F0A3F05B
:10279A00E0FF900544E4F0A3EFF0A3122C55001ECD
:1027AA00CA9090053EE0FF7E00C394207480948016
:1027BA00403CD3EF947E748094805032E024E0FF52
:1027CA00EE34FFFE3395E0FDFCE47B82FAF9F81261
:1027DA002BE7900546E0F8A3E0F9A3E0FAA3E02F7F
:1027EA00FFEA3EFEE93DFDE83CFCA3122C499005B8
:1027FA0040E02407FFE433FEEF7803CEC313CE1381
:10280A00D8F9807B90053F7410F0A37408F0E0FFBC
:10281A00900544E4F0A3EFF0A3122C55001F288082
:10282A00900539E0FEA3E0FFC394A1EE94AC403BCF
:10283A00D3EF94DFEE94AC5032E0245FFF90053979
:10284A00E03453FEE4FCFD7B10FAF9F8122BE79012
:10285A000546E0F8A3E0F9A3E0FAA3E02FFFEA3E79
:10286A00FEE93DFDE83CFCA3122C49900540E0241A
:10287A0007FFE433FEEF7803CEC313CE13D8F9FF74
:10288A0090053FE0FEEF8EF0A4900541F0C2C77FAD
:10289A0003124FC590054AA3E0FDA3A3E4FFFEE49B
:1028AA00FC7810122C36124FC590054AA3A3E0FEFD
:1028BA00A3E4FFE4FDFC7808122C36124FC59005FC
:1028CA004AE0FCA3E0FDA3E0FEA3E0FF124FC5A38C
:1028DA00E06401701812502EEF900544F0A3E4F062
:1028EA0012502EE02FF0900544E03400F09005419C
:1028FA00E0602412502E90053BE0FBA3E0FAA3E02F
:10290A00F9EF122A9B90053CE475F001122B6C90AA
:10291A000541E014F080D6D2C790053FE0FE90054D
:10292A0045E02400FF900544E03EFEF0A3EFF0E40A
:02293A00FCFDA2
:01293C002278
:0E312200900595EDF0A3EBF0A3EAF0A3E9F021
:10313000EF24E1607C147003023214147003023235
:10314000761470030232D92404600302333D9005E3
:10315000997407F0A37405F0E0FF90059CE4F0A3D8
:10316000EFF07BFF7A007926A3EBF0A3EAF0A3E966
:10317000F0900595E024E0FFE434FFFE900599E02F
:10318000FD7C00122ACFE92FF9EA3EFA9005A1EB67
:10319000F0A3EAF0A3E9F090059AE02407FFE433F6
:1031A000FEEF7803CEC313CE13D8F975F0070232C1
:1031B000D69005997408F0A37406F0E0FF90059C82
:1031C000E4F0A3EFF07BFF7A0279C6A3EBF0A3EA69
:1031D000F0A3E9F0900595E024E0FFE434FFFE90D1
:1031E0000599E0FD7C00122ACFE92FF9EA3EFA901A
:1031F00005A1EBF0A3EAF0A3E9F090059AE024071B
:10320000FFE433FEEF7803CEC313CE13D8F975F085
:10321000080232D6900599740CF0A37406F0E0FF12
:1032200090059CE4F0A3EFF07BFF7A0579C6A3EB51
:10323000F0A3EAF0A3E9F0900595E024E0FFE43480
:10324000FFFE900599E0FD7C00122ACFE92FF9EAF4
:103250003EFA9005A1EBF0A3EAF0A3E9F090059AFD
:10326000E02407FFE433FEEF7803CEC313CE13D878
:10327000F975F00C8060900599740EF0A37407F056
:10328000E0FF90059CE4F0A3EFF07BFF7A0A79461B
:10329000A3EBF0A3EAF0A3E9F0900595E024E0FFAA
:1032A000E434FFFE900599E0FD7C00122ACFE92F5F
:1032B000F9EA3EFA9005A1EBF0A3EAF0A3E9F09059
:1032C000059AE02407FFE433FEEF7803CEC313CE64
:1032D00013D8F975F00EA480609005997410F0A3CE
:1032E0007408F0E0FF90059CE4F0A3EFF07BFF7A18
:1032F0000F7986A3EBF0A3EAF0A3E9F0900595E03F
:1033000024E0FFE434FFFE900599E0FD7C00122AE2
:10331000CFE92FF9EA3EFA9005A1EBF0A3EAF0A37A
:10332000E9F090059AE02407FFE433FEEF7803CE3E
:10333000C313CE13D8F9C454F090059BF090059BAD
:10334000E0603A9005A1E0FBA3E0FAA3E0F9122ABD
:1033500055FF900596E0FBA3E0FAA3E0F9EF122AEF
:103360009B9005A2E475F001122B6C900597E47513
:10337000F001122B6C90059BE014F080C090059C2E
:05338000E0FEA3E0FFE8
:013385002225
:080003008040201008040201F6
:104F5400900534EEF0A3EFF0900534E07002A3E086
:104F640060131251B6900535E024FFF0900534E04B
:064F740034FFF080E3228F
:0B51B6000000007F0B7EBEDEFEDFFC71
:0151C10022CB
:104BF60075F080A42400F582E5F03400F583E582A3
:0C4C06002BF582E43583F583E0FF7D018F
:104C1200ED6004D2E98002C2E9C2E8E4FEEEC39488
:104C220008748094805015C2ECEF30E704D2EB8018
:104C320002C2EBEF25E0FFD2EC0E80E1D2E8D2E92E
:014C4200224F
:10507000AC07ED24B0FFE4FD124C12EC54F0C45424
:105080000F4410FF124C12EC540F4401FF024C125B
:104DDD00E4FEEEC3940874809480502DE4FDEDC381
:104DED00948074809480501E75F080EEA42400F59C
:104DFD0082E5F03400F583E5822DF582E43583F507
:094E0D0083EFF00D80D80E80C97E
:014E16002279
:0B475C009005B5EFF0A3EDF0A3EBF02B
:10476700E49005B9F09005B7E0FF9005B9E0C39F65
:104777005057E4A3F09005B8E0FF9005BAE0FEC3F8
:104787009F503E9005B5E02EFF9005B9E0FE9005DD
:10479700B6E02EFD124E509005BBEFF06401F0FB22
:1047A7009005BAE0FF9005B5E02FFF9005B9E0FE50
:1047B7009005B6E02EFD12483F9005BAE004F08060
:0947C700B49005B9E004F0809CF7
:0147D00022C6
:104E1700E4FCECC3940874809480502CEC24B0FF1D
:104E2700E4FD124C12E4FF124C127F10124C12E4F4
:104E3700FBEBC3948074809480500A7D01E4FF12D9
:084E47004C120B80EC0C80CA38
:014E4F002240
:103DC00053CCE053CBE0D2E8D2EA7F647E00124FBE
:103DD00054C2EA7F647E00124F54D2EAC2E8E4FD86
:103DE0007FAE124C12E4FF124C127F10124C127F65
:103DF00040124C127F81124C127FCF124C127FA1C5
:103E0000124C127FC8124C127FA6124C127FA812BD
:103E10004C127F3F124C127FD3124C12E4FF124C13
:103E2000127FD5124C127F80124C127FD9124C1285
:103E30007FF1124C127FDA124C127F12124C127F59
:103E4000DB124C127F40124C127F20124C127F0268
:103E5000124C127F8D124C127F14124C127FA4123E
:103E60004C127FA6124C127FAF124C12124E17E466
:083E7000FDFF125070D2E822A0
:104D9F00E4FCECC39408748094805031C2E9C2E8FB
:104DAF00EC24B0FFE4FD124C12E4FF124C127F1002
:104DBF00124C12D2E9E4FBEBC394807480948050C0
:0D4DCF0007EC124BF60B80EFD2E80C80C50C
:014DDC0022B4
:04456E00AC07A905E8
:10457200E9131313541FFAAF03E92FFFE433CF24D7
:1045820007CF3400FEEF7803CEC313CE13D8F990D1
:10459200053CF0AB0490053BE02C90053DF0EC545B
:1045A2000FA3F0ECC4540F4410A3F0AF01EF1313A8
:1045B20013541FFA90053CE0FFEAC39F5035C2E94D
:1045C200C2E8EA24B0FFE4FD124C1290053EE0FF7F
:1045D200124C12A3E0FF124C12D2E9AB0490053D3B
:1045E200E0FFEBC39F5007EA124BF60B80EFD2E8D5
:0345F2000A80C17B
:0145F50022A3
:02483F00A903CB
:10484100EF547FFFED1313135407FEED5407FD756D
:10485100F080EEA42400F582E5F03400F583E582D2
:104861002FF582E43583F583E0FCEB6401700EA83B
:104871000504088002C333D8FC4CFC800EA80574E3
:1048810001088002C333D8FCF45CFC75F080EEA40F
:104891002400F582E5F03400F583E5822FF582E40A
:0648A1003583F583ECF005
:0148A70022EE
:104E5000EF547FFFED1313135407FEED5407FD7558
:104E6000F080EEA42400F582E5F03400F583E582BD
:104E70002FF582E43583F583E0FFAE05A8060880B0
:084E800002C313D8FC5401FF2A
:014E88002207
:0B356000900538EFF0A3EDF0A3EBF0B6
:10356B0078467C057D017BFF7A0079037E007F081E
:10357B00122A0D90053BE02407FFE433FEEF78039E
:10358B00CEC313CE13D8F9900545F0E490053FF068
:10359B00A3F090053AE0FFC3900540E09F90053FF4
:1035AB00E0940040030236B3E4900541F0A3F090A1
:1035BB000545E0FFC3900542E09F900541E0940074
:1035CB0040030236A290053CE0FBA3E0FAA3E0F92E
:1035DB00122A55FA90053DE475F001122B6CE4901C
:1035EB000543F0A3F0900543E0FCA3E0FDC3940872
:1035FB00EC94004003023691900541E0FEA3E07885
:10360B0003C333CE33CED8F92DFFEC3EFE90053BF2
:10361B00E0FDC3EF9DEE9400506C900543E0FEA3DC
:10362B00E0FF2446F58274053EF583E05A90054190
:10363B00601EA3E075F008A4FD900538E02D2FFF68
:10364B0090053FA3E0FE900539E02EFD7B01802223
:10365B00A3E075F008A4FF900538E02FFF90054319
:10366B00A3E02FFF90053FA3E0FE900539E02EFD70
:10367B00E4FB12483F900544E004F07006900543CC
:10368B00E004F00235F0900542E004F0700690057E
:10369B0041E004F00235BA900540E004F07006906A
:0836AB00053FE004F002359D2B
:0136B30022F4
:015208002283
:0B33860090052CEFF0A3EDF0A3EBF09E
:1033910090052CE0900537F0900536F014B4180034
:1033A10040030234469033B475F003A4C58325F07D
:1033B100C583730233FC0233FE023400023402027D
:1033C100340402340C02340C02340C02340E023484
:1033D1000E02341602341602341E02341E02342048
:1033E10002342802342802342802343002343802EC
:1033F10034380234380234460233FE80068040807D
:103401001E802C9005377406F0803A8008900536AE
:103411007402F080309005367401F0802880189095
:1034210005377410F0801E9005367403F0801690F5
:1034310005377414F0800E9005367404F080069000
:103441000537740AF090052DE0547FF0A3E00235B2
:103451005990052FE0FBA3E0FAA3E0F9122A557079
:103461000302355FFD7C00C39480EC94004026ED9F
:103471007D00FC900530E475F001122B6C90052F56
:10348100E0FBA3E0FAA3E0F9122A552DFDE43CFC90
:103491009005368003900537E090052CF090052CBF
:1034A100E0FF7B017A047900121926900534EEF0D1
:1034B100A3EFF0900534E0FCA3E0FDEC900532F0C1
:1034C100AF05EDA3F07E00A3EEF0A3EFF0FF9005B2
:1034D1002DE02FFFE433FEC3EF9480EE9400400F04
:1034E100E4F0900532E0FF90052EE02F543FF0907C
:1034F100052DE0FFA3E0FD900533E090053BF0A32F
:103501007401F0A37404F0A37400F0900532E0FBA1
:1035110012356090052DE0FFA3E0FD900532E0FB40
:10352100A3E090053BF012456E900530E475F00183
:10353100122B6C900534A3E0FF90052DE02FF0E0F5
:10354100C39480748094805003023452E4F0900557
:0E35510032E0FF90052EE02F543FF00234527E
:01355F002249
:0951E30053B4BF53B3BFD2C6227E
:0B37FE0090052CEBF0A3EAF0A3E9F02B
:10380900E4900530F0A3F07F207E03124F54C2C626
:103819007F147E00124F54D2C6E4900533F030C6AF
:103829000B900533E004F0E070F4FF2220C60B9002
:103839000530E004F0E070F4FF2230C60B9005314A
:10384900E004F0E070F4FF22900531E0FF900530CC
:10385900E02F90052FF0E0FFC4540FFEEF1313542F
:103869003F2E900532F0E4FFEFC3940574809480F5
:10387900506AE490052FF0FEEEC39408748094809A
:10388900503790052FE025E0F0E4FD900533F02056
:10389900C60B900533E004F0E070F4FF2230C60651
:1038A9000DED70F9FF22900532E0FCEDD39C400646
:1038B90090052FE004F00E80BF90052FE0FD9005E4
:1038C9002CE0FBA3E0FAA3E0F975F002EFA4F5827E
:1038D90085F083E48DF0122BBA0F808CE490052FCC
:1038E900F0FFEFC3940474809480502290052CE07B
:1038F900FBA3E0FAA3E0F975F002EFA4F58285F0E5
:1039090083122B82FE90052FE02EF00F80D49005B4
:103919002CE0FBA3E0FAA3E0F9900008122B82FF48
:1039290090052FE0B50707E4B5F0037F01227F007A
:01393900226B
:1051560012504F9005DAEFF0124B6E9005DAE0FF31
:015166002226
:0352020002504F08
:03520500024B6EEB
:104EF40053877F759850438E40538EFE53890F43DA
:104F04008920758BDC758DDCC2ABD28ED2AFD29981
:104F1400750801E4F509F50E850E0FF50B850C0BEC
:014F2400226A
:10504F00E50F650E60FA74C2250FF582E43404F59E
:10505F0083E0FFE50F04543FF50FB50E03E4F509A8
:01506F00221E
:104B56009005CFE0FCA3E0FDA3E0FEA3E0FF122C4E
:084B660036EF540FFF124FF56A
:104B6E00E50B04543FFE650C60F6E5086401701514
:104B7E008F997482250BF582E43404F583EFF08E61
:104B8E000BE4F508227482250BF582E43404F583D8
:0A4B9E00EFF0E50B04543FF50B2285
:10514300122A55FF600C124B6E740129F9E43AFAE6
:0351530080EE22C9
:104C4300ECFEEF4DC4F8540FC868FDEEC454F048B1
:044C5300FC12504FB0
:104C57007EFFEFC39430400AEFD394395004EF241A
:104C6700D0FEEFC39461400AEFD394665004EF245B
:104C7700A9FEEFC39441400AEFD394465004EF24B2
:044C8700C9FEAF06AD
:014C8B002206
:0D4FE800E0FCA3E0FDA3E0FEA3E0540FFFFA
:104FF500EFD3940974809480EF50052430FE80032C
:055005002457FEAF0678
:01500A002283
:02516700AD0792
:0F516900EDC4124B68ED540FFF124FF5024B6E61
:044FA000AD07AC06A7
:104FA400ECC4124B68EC124B68ECC4F854F0C8ED36
:104FB400C4540F48124B68ED540FFF124FF5024BC7
:014FC4006E7E
:0647D1009005CB122C49FB
:1047D7009005CBE0FCA3E0FDA3E0FEA3E0FF781487
:1047E700124B649005CBE0FCA3E0FDA3E0FEA3E041
:1047F700FF7810124B649005CBE0FCA3E0FDA3E02B
:10480700FEA3E0FF780C124B649005CBE0FCA3E01D
:10481700FDA3E0FEA3E0FF7808124B649005CBE010
:10482700FCA3E0FDA3E0FEA3E0FF7804124B649035
:0848370005CB124FE8024B6EA5
:0645F6009005CF122C49D4
:1045FC00781C124B569005CFE0FCA3E0FDA3E0FE27
:10460C00A3E0FF7818124B647814124B569005CF28
:10461C00E0FCA3E0FDA3E0FEA3E0FF7810124B64E6
:10462C009005CFE0FCA3E0FDA3E0FEA3E0FF780C37
:10463C00124B649005CFE0FCA3E0FDA3E0FEA3E0E9
:10464C00FF7808124B649005CFE0FCA3E0FDA3E0DB
:10465C00FEA3E0FF7804124B649005CF124FE802E2
:02466C004B6E93
:10000E0012504F124C57EFC454F0FD12504F124C79
:04001E0057EF4DFF4C
:0100220022BB
:1050CC00E4FD124C53EFC4F8540FC868FDE4124CC5
:0C50DC004F124C43124C43EF4DAE04FF4A
:0150E80022A5
:0D4A41009005D3EBF0A3EAF0A3E9F0AD0778
:104A4E00E4FCECC39402748094805033C374019CD4
:104A5E0025E025E0FFF8ED088002C313D8FC540FC3
:104A6E00FF9005D6F0124FF59005D3E0FBA3E0FAC8
:104A7E00A3E0F98C82758300EF122AAD0C80C390EF
:104A8E0005D3E0FBA3E0FAA3E0F9AF048F827583B0
:054A9E0000E4022AAD56
:0F46E6009005BCEBF0A3EAF0A3E9F0AD07AC063A
:1046F500E4A3F09005BFE0FFC39404748094805058
:1047050040C374039F25E025E0FFAE04EDA807082C
:104715008005CEC313CE13D8F9540FFF9005C0F012
:10472500124FF59005BCE0FBA3E0FAA3E0F9A3E086
:10473500F582758300EF122AAD9005BFE004F08085
:10474500B29005BCE0FBA3E0FAA3E0F9A3E0F58293
:07475500758300E4022AADA8
:10466E009005AD122C499005B1EBF0A3EAF0A3E949
:01467E00F04B
:10467F00E4A3F09005B4E0FBC394087480948050D9
:10468F00409005ADE0FCA3E0FDA3E0FEA3E0FFC377
:10469F0074079B25E025E0F9F8122C36EF540FFF35
:1046AF00AD07124FF5A3E0FBA3E0FAA3E0F9A3E0F7
:1046BF00F582758300EF122AAD9005B4E004F08007
:1046CF00B29005B1E0FBA3E0FAA3E0F9A3E0F58215
:0746DF00758300E4022AAD1F
:0B41DC009005A4EBF0A3EAF0A3E9F0CB
:1041E700E49005ABF09005AAE0FFA3E0FEC39F5063
:1041F7006B9005A4E0FBA3E0FAA3E0F98E82758338
:1042070000122A6E9005ACF0E0C4540FFF124FF570
:104217009005A7E0FBA3E0FAA3E0F99005ABE075F2
:10422700F002A4F58285F083EF122AAD9005AC1257
:104237004FF1AD079005ABE075F002A4FF9005A71D
:10424700E0FBA3E0FAA3E02FF9EA35F0FA900001CA
:10425700ED122AAD9005ABE004F080899005A7E048
:10426700FBA3E0FAA3E0F9A3E075F002A4F58285C9
:06427700F083E4022AAD11
:103D000090052CEEF0A3EFF0A3EBF0A3EAF0A3E90B
:013D1000F0C2
:103D1100900535E4F0A3740AF0E4900531F0A3F0C6
:103D2100900535E0FCA3E0FD90052CE0FEA3E0FF4B
:103D3100122AE1900533EEF0A3EFF0124FF5900552
:103D41002EE0FBA3E0FAA3E0F9A3E0FCA3E0F582F7
:103D51008C83EF122AAD90052CE0FEA3E0FF9005C5
:103D610035E0FAA3E0FBFDAC02122AE190052CEC50
:103D7100F0A3EDF07D0A7C00AF03AE02122AE190C0
:103D81000535EEF0A3EFF0900532E004F0700690F7
:103D91000531E004F0C3900532E09402900531E072
:103DA10094005003023D2190052EE0FBA3E0FAA30D
:0F3DB100E0F9A3E0FEA3E0F5828E83E4022AADE1
:103A6B00B5B1C7B0CEC2B6C83A00B5B1C7B0CAAAD5
:103A7B00B6C83A00430025000166013F011C010D49
:103A8B0000EF00D500BD00B300A0008E00870077CB
:103A9B00006A005F005A005000470043003C0035AD
:103AAB00002F08080C0C0D0D0C0B0B0A0A0909084A
:103ABB000C0C0B0B0A0A090C0C0B0B0A0A09080855
:103ACB000C0C0D0D0C0B0B0A0A090908000A0A0A4B
:103ADB000A0A0A140A0A0A0A0A0A140A0A0A0A0A27
:103AEB000A140A0A0A0A0A0A140A0A0A0A0A0A140D
:103AFB000A0A0A0A0A0A140005050605080705053D
:103B0B000605090805050C0A0807060B0B0A080928
:103B1B000100060208080810060208080810060231
:103B2B000808080808060208080810000D0C0F0FFB
:103B3B001010110F0C0D0C0F0F1010110F0D0C0F8F
:103B4B000F1010110F0C0D0C0F0F100F000C041099
:103B5B0010101010101008041010101010100C047E
:0E3B6B00101010101010100C0410101020007C
:10445200C108C10CC109C10AC10B41059300420543
:1044620064000044055D000000004105580041055C
:1044720061004105590048056B0000000000000082
:1044820000410594004405663132300041056A035B
:10449200420556000042055B0000410562004105ED
:1044A20063005005730000000000000000000000DF
:1044B2000000000000500583000000000000000022
:1044C200000000000000000041055A0041055100B3
:0F44D20041054F00410550004405520000000015
:10518900AE05A8067401088002C333D8FC4FFF227C
:10517800AE05A8067401088002C333D8FCF45FFFAB
:015188002204
:05511900900550E0FFCD
:10511E00AE05A8067401088002C333D8FC5FFF22D7
:0B51CE0043CCC053CB3FC2EEC2EF2227
:0A51D90043B43453B3CB53C0CB22D0
:0951EC0053CADF75C9DFD2CD22E0
:045090007F0A7E0015
:10509400EF1FAA0670011E4A600FE4FDEDC3947869
:0950A4007480948050EA0D80F341
:0150AD0022E0
:103F3000E490052CF0A3F090052CE0FEA3E0FF2414
:103F4000D8F582743A3EF583E493701174AD2FF581
:103F500082743A3EF583E4937003023FDBE4FDFC98
:103F600090052CE0FEA3E024D8F582743A3EF58358
:103F7000E49375F040A4FFC3ED9FEC95F05045B27B
:103F8000CDE4FFFE90052CE0FAA3E024ADF58274A9
:103F90003A3AF583E49325E02481F582E4343AF556
:103FA00083D37401939FE4939E4012200805EF1F72
:103FB00070011E3009250FBF00010E80C70DBD0026
:103FC000010C809C12509090052DE004F0600302DB
:0B3FD0003F3790052CE004F0023F3763
:013FDB0022C3
:103FDC00E490052CF0A3F090052CE0FEA3E0FF2468
:103FEC001DF582743B3EF583E493701174032FF539
:103FFC0082743B3EF583E4937003024087E4FDFC3E
:10400C0090052CE0FEA3E0241DF582743B3EF58365
:10401C00E49375F040A4FFC3ED9FEC95F05045B2CE
:10402C00CDE4FFFE90052CE0FAA3E02403F58274A6
:10403C003B3AF583E49325E02481F582E4343AF5A8
:10404C0083D37401939FE4939E4012200805EF1FC5
:10405C0070011E300A250FBF00010E80C70DBD0078
:10406C00010C809C12509090052DE004F06003022E
:0B407C003FE390052CE004F0023FE35E
:014087002216
:10408800E490052CF0A3F090052CE0FEA3E0FF24BB
:1040980058F582743B3EF583E493701174372FF51D
:1040A80082743B3EF583E4937003024133E4FDFCE4
:1040B80090052CE0FEA3E02458F582743B3EF5837E
:1040C800E49375F040A4FFC3ED9FEC95F05045B222
:1040D800CDE4FFFE90052CE0FAA3E02437F58274C6
:1040E8003B3AF583E49325E02481F582E4343AF5FC
:1040F80083D37401939FE4939E4012200805EF1F19
:1041080070011E300B250FBF00010E80C70DBD00CA
:10411800010C809C12509090052DE004F060030281
:0B412800408F90052CE004F002408F57
:014133002269
:104B0000E4F5B343B43443BA8090FF147408F090D2
:104B1000FF24F090FF34F0E4F5F190FFF2740FF011
:104B200090FFF07417F0A37470F090FF10E4F0A3FE
:104B300004F0A3E4F0A3F090FF20F0A304F0A3E4BA
:104B4000F0A3F090FF30F0A304F0A3E4F0A3F0434F
:064B5000F58053BA7F223C
:104C8C00EF4E700653F5FDC2C522EF64644E7006FC
:104C9C0053F5FDD2C52243BA8090FF10E4F0A30473
:104CAC00F0E4FCFD7B707A17F9F8122BE7E47B64D7
:104CBC00FAF9F8124D5B90FF12EEF0A3EFF053BA35
:054CCC007F43F5022208
:104CD100EF4E700653F5FBC2C422EF64644E7006BA
:104CE10053F5FBD2C42243BA8090FF20E4F0A30421
:104CF100F0E4FCFD7B707A17F9F8122BE7E47B6492
:104D0100FAF9F8124D5B90FF22EEF0A3EFF053BADF
:054D11007F43F50422C0
:104D1600EF4E700653F5F7C2C222EF64644E70067A
:104D260053F5F7D2C22243BA8090FF30E4F0A304D1
:104D3600F0E4FCFD7B707A17F9F8122BE7E47B644C
:104D4600FAF9F8124D5B90FF32EEF0A3EFF053BA8A
:054D56007F43F5082277
:1050E900E4900593F053C0CBFFFE124C8CE4FFFE15
:0950F900124CD1E4FFFE024D1639
:1043BA00900593E07003024451900564E0FEA3E087
:1043CA00FFC39464EE648094805020124C8C900554
:1043DA0064E0FEA3E0FFC374649FFFE49EFE124CF8
:1043EA00D1900564E0FEA3E0FF8034900564E0FE0E
:1043FA00A3E0FFC374C89FFFE49EFE124C8C900595
:10440A0065E0249CFF900564E034FFFE124CD190D5
:10441A000564E0FEA3E0FFC374C89FFFE49EFE129A
:10442A004D16900565E004F07006900564E004F00E
:10443A00900564E0FEA3E0FF7C007DC8122B369055
:08444A000564ECF0A3EDF02283
:03000B0002393A7D
:10393A00C0E0C0F0C083C082C0D075D000C000C053
:10394A0001C002C003C004C005C006C007124F254B
:10395A00900557E004F07006900556E004F0C39015
:10396A000557E094F4900556E064809481400F7BFB
:10397A0001E4FDFF12427D900556E4F0A3F09005A4
:10398A0063E0FF7D0112511EEF6011E0FF1D12512D
:10399A001EEF6004D2EE8006B2EE8002C2EEC39041
:1039AA00055CE094C890055BE064809480500CA3A9
:1039BA00E004F0700690055BE004F0900563E0FF18
:1039CA007D0212511EEF603920B207E4FBFD7F0130
:1039DA00801220B307E4FB7D01FF800820B40A7B34
:1039EA0001E4FDFF12427D800520B509B20C900565
:1039FA005BE4F0A3F0900563E0FF7D02125178EFDB
:103A0A00F030B20930B30630B40320B51DC39005B7
:103A1A005CE094C890055BE064809480400C90055B
:103A2A0063E0FF7D02125189EFF0900562E004F035
:103A3A00E0FF3395E0FEC3EF940AEE648094804081
:103A4A0005E4F01243BAD007D006D005D004D0035B
:103A5A00D002D001D000D0D0D082D083D0F0D0E034
:013A6A003229
:10510200D2A9D2AF538E7F5389F0758ACD758CF8B0
:07511200C28DD28CD2B9223C
:104F2500900594E004F0E0FF75F008122A33AFF025
:104F3500900594EFF0124BA8900594E0FF3395E0AF
:0F4F4500FE746B2FF58274053EF583E0F5802234
:104BA8007EFFEFB40800503F904BB7F828287302F7
:104BB8004BCF024BD3024BD7024BDB024BDF024BEE
:104BC800E3024BE7024BEB7EFE801E7EFD801A7EE1
:104BD800FB80167EF780127EEF800E7EDF800A7ED5
:0D4BE800BF80067E7F80027EFFAF068FA09B
:014BF500229D
:063E78009005C1122C4967
:103E7E00E49005C5F09005C1E0FCA3E0FDA3E0FED3
:103E8E00A3E0FF90055D122C49E4900594F0900597
:103E9E00C5F09005C5E0FF3395E0FEC3EF9408EE44
:103EAE0064809480507B9005C1E0FCA3E0FDA3E00C
:103EBE00FEA3E0FFEC4D4E4F6049E47B0AFAF9F8A1
:103ECE009005C1A3A3A3E0124D5BAF031249E79087
:103EDE0005C5E0FD3395E0FC746B2DF58274053C51
:103EEE00F583EFF09005C1E0FCA3E0FDA3E0FEA397
:103EFE00E0FFE47B0AFAF9F8124D5B9005C1122C33
:103F0E004980159005C5E0FF3395E0FE746B2FF5E3
:103F1E008274053EF583E4F09005C5E004F0023EA0
:013F2E00A0F2
:013F2F00226F
:053C3D0090050CEFF002
:103C4200E4A3F0900558EFF0E4900594F0EF33957B
:103C5200E0FEC3EF943CEE64809480401890050C23
:103C6200E0FF75F03C122A33AFF090050CEFF090B4
:103C72000561E004F0E490050DF090050DE0FF33DE
:103C820095E0FEC3EF9402EE648094805059900553
:103C92000CE0FFFD3395E0FCED4C60291249DE900B
:103CA200050DE0FD3395E0FC746B2DF58274053C47
:103CB200F583EFF090050CE0FF75F00A122A3390BD
:103CC200050CF0801AE4FF1249E790050DE0FD3380
:103CD20095E0FC746B2DF58274053CF583EFF09052
:103CE200050DE004F0809390050DE0FF3395E0FEB2
:0D3CF200746B2FF58274053EF5837440F06D
:013CFF0022A2
:053B790090050CEFF0C7
:103B7E00E4A3F0900561EFF0E4900594F0EF339537
:103B8E00E0FEC3EF943CEE64809480401890050CE8
:103B9E00E0FF75F03C122A33AFF090050CEFF09079
:103BAE000559E004F090050D7403F090050DE0FF4B
:103BBE003395E0FEC3EF9405EE64809480505990E7
:103BCE00050CE0FFFD3395E0FCED4C60291249DE5B
:103BDE0090050DE0FD3395E0FC746B2DF5827405B8
:103BEE003CF583EFF090050CE0FF75F00A122A33D6
:103BFE0090050CF0801AE4FF1249E790050DE0FDE8
:103C0E003395E0FC746B2DF58274053CF583EFF073
:103C1E0090050DE004F0809390050DE0FF3395E0E4
:0E3C2E00FE746B2FF58274053EF5837440F032
:013C3C002265
:0541340090050CEFF006
:10413900E4A3F0900559EFF0E4900594F0EF33957E
:10414900E0FEC3EF9418EE64809480401290050C51
:10415900E0FF75F018122A33AFF090050CEFF090DC
:10416900050D7406F090050DE0FF3395E0FEC3EFF1
:104179009408EE64809480505990050CE0FFFD335B
:1041890095E0FCED4C60291249DE90050DE0FD3308
:1041990095E0FC746B2DF58274053CF583EFF09086
:1041A900050CE0FF75F00A122A3390050CF0801A0D
:1041B900E4FF1249E790050DE0FD3395E0FC746BCF
:1041C9002DF58274053CF583EFF090050DE004F0C0
:0241D9008093D1
:0141DB0022C1
:10427D00900558E02BF0900561E02DF0900559E088
:10428D002FF0900558E0FFFD3395E0FCC3ED943C15
:10429D00EC648094804014EF75F03C122A33AFF03B
:1042AD00900558EFF0900561E004F0900561E0FF96
:1042BD00FD3395E0FCC3ED943CEC64809480401498
:1042CD00EF75F03C122A33AFF0900561EFF09005D9
:1042DD0059E004F0900559E0FFFD3395E0FCC3ED86
:1042ED009418EC64809480400EEF75F018122A3308
:1042FD00AFF0900559EFF0900558E0FF123C3D905E
:0F430D000561E0FF123B79900559E0FF02413452
:104F7A00AE07AF03900558EFF0900561EDF090058C
:104F8A0059EEF0123C3D900561E0FF123B79900525
:064F9A0059E0FF02413462
:0949DE00EF75F00A122A33AFF064
:1049E700E4FEEFB40A00504D9049F6F82828730208
:1049F7004A14024A18024A1C024A20024A24024A5E
:104A070028024A2C024A30024A34024A387E3F8042
:104A1700267E0680227E5B801E7E4F801A7E668001
:104A2700167E6D80127E7D800E7E07800A7E7F80D7
:094A3700067E6F80027E40AF068E
:014A40002253
:0551FD00EF4480FF22D9
:105199007594FFE4F5937596FFF595D2AF02510228
:0851F500900506EFF0B20C2258
:06431C00900506122C4979
:10432200E47B64FAF9F8900506E0FCA3E0FDA3E063
:10433200FEA3E0FF124D5B90050AEBF0900506E04C
:10434200FCA3E0FDA3E0FEA3E0FFE47B64FAF9F83E
:10435200124D5B900506122C49E47B64FAF9F89041
:104362000506E0FCA3E0FDA3E0FEA3E0FF124D5B27
:1043720090050BEBF0900506E0FCA3E0FDA3E0FE48
:10438200A3E0FFE47B64FAF9F8124D5B9005061294
:104392002C49E47B64FAF9F8900506E0FCA3E0FD01
:1043A200A3E0FEA3E0FF124D5BAF0390050BE0FD1F
:0843B20090050AE0FB024F7ABE
:10512E00900506EFF0900593E060030250E99005BC
:05513E00937401F02252
:104EBF00EF14601314601914601F1460252404701C
:104ECF0023C208C2098004D208D209C20AC20B2227
:104EDF00D208C209D20AC20B22D208C209C20AD210
:054EEF000B22B20822B5
:104E8900EF146016147022900563E0FFE4FD1251DF
:104E990089EFF00D125189EFF022900563E0FF7D53
:104EA90001125189EFF01D8007900563E0FF7D0134
:064EB900125178EFF02217
:10497900ED2402900551F09005CAE0900583F0906E
:10498900054F7401F090054FE0D39D5027E0FF7566
:10499900830024FFF582E58334FFF583122A6EFE36
:1049A90074832FF582E43405F583EEF090054FE02A
:1049B90004F080D19005CAE0FF90054FE02483F50B
:1049C90082E43405F583EFF0900583E0F5999005CD
:0549D9004F7401F02203
:1050AE009005517403F0900583EDF0A3EFF0A3ED9E
:0E50BE00F0900583E0F59990054F7401F02203
:052D5400900504EFF002
:102D5900E4A3F0EF147003022E35147003022EE37E
:102D6900147003022F911470030230442404600389
:102D79000230FF900550E0FFE4FD12511EEF700391
:102D8900022E2BE0FF125178EFF0E4900505F09048
:102D99000552122C550000000090055AE0FF9005DD
:102DA90005E0FD3395E0FCC3ED9F7480F86C985005
:102DB90060900552E0F8A3E0F9A3E0FAA3E0FBC0B4
:102DC90000C001C002C0031248A8A804A905AA06A8
:102DD900AB07900505E0FF3395E0FE74732FF5828C
:102DE90074053EF583E0FFE4FCFDFE122BE7D003FA
:102DF900D002D001D000EB2FFFEA3EFEE93DFDE80D
:102E09003CFC900552122C49900505E004F0022D76
:102E1900A2900552E0FCA3E0FDA3E0FEA3E0FF02BF
:102E2900431C900550E0FFE4FD0230F47D0112518E
:102E390019EF7003022ED9E0FF125178EFF0E490F8
:102E49000505F0900552122C550000000090055A16
:102E5900E0FF900505E0FD3395E0FCC3ED9F74802C
:102E6900F86C985060900552E0F8A3E0F9A3E0FAF5
:102E7900A3E0FBC000C001C002C0031248A8A80417
:102E8900A905AA06AB07900505E0FF3395E0FE7496
:102E9900732FF58274053EF583E0FFE4FCFDFE1215
:102EA9002BE7D003D002D001D000EB2FFFEA3EFE82
:102EB900E93DFDE83CFC900552122C49900505E0DE
:102EC90004F0022E56900552A3A3A3E0FF02512E4F
:102ED900900550E0FF7D010230F47D02125119EF97
:102EE9007003022F87E0FF125178EFF0E490050597
:102EF900F0900552122C550000000090055AE0FF91
:102F0900900505E0FD3395E0FCC3ED9F7480F86CF6
:102F1900985060900552E0F8A3E0F9A3E0FAA3E025
:102F2900FBC000C001C002C0031248A8A804A9053B
:102F3900AA06AB07900505E0FF3395E0FE74732FF1
:102F4900F58274053EF583E0FFE4FCFDFE122BE7F4
:102F5900D003D002D001D000EB2FFFEA3EFEE93DBD
:102F6900FDE83CFC900552122C49900505E004F05F
:102F7900022F04900552A3A3A3E0FF024E899005F6
:102F890050E0FF7D020230F4900550E0FF7D03120E
:102F9900511EEF700302303AE0FF125178EFF0E46E
:102FA900900505F0900552122C550000000090057F
:102FB9005AE0FF900505E0FD3395E0FCC3ED9F74F1
:102FC90080F86C985060900552E0F8A3E0F9A3E00E
:102FD900FAA3E0FBC000C001C002C0031248A8A8C0
:102FE90004A905AA06AB07900505E0FF3395E0FEA5
:102FF90074732FF58274053EF583E0FFE4FCFDFE52
:10300900122BE7D003D002D001D000EB2FFFEA3E0C
:10301900FEE93DFDE83CFC900552122C499005055E
:10302900E004F0022FB7900552A3A3A3E0FF024EDC
:10303900BF900550E0FF7D030230F4900550E0FF9A
:103049007D0412511EEF70030230EDE0FF1251783A
:10305900EFF0E4900505F0900552122C55000000A0
:103069000090055AE0FF900505E0FD3395E0FCC3AB
:10307900ED9F7480F86C985060900552E0F8A3E0D9
:10308900F9A3E0FAA3E0FBC000C001C002C003122B
:1030990048A8A804A905AA06AB07900505E0FF33CF
:1030A90095E0FE74732FF58274053EF583E0FFE425
:1030B900FCFDFE122BE7D003D002D001D000EB2F8C
:1030C900FFEA3EFEE93DFDE83CFC900552122C4921
:1030D900900505E004F002306A900552A3A3A3E02D
:1030E900FF0251F5900550E0FF7D04125189EFF080
:1030F900E490055AF022900550E0601C900504E028
:1031090024D0FF90055AE02473F582E43405F58351
:08311900EFF090055AE004F00C
:01312100228B
:104AA3009005D7EBF0A3EAF0A3E9F0900551EDF000
:104AB300E490054FF090054FE0FFC39D502890050B
:104AC300D7E0FBA3E0FAA3E0F98F82758300122AF3
:104AD3006EFE74832FF582E43405F583EEF09005C2
:104AE3004FE004F080CF9005D7E0FBA3E0FAA3E00A
:0D4AF300F9122A55F59990054F7401F02233
:0F48A80090055AE014FF900505E0FEC3EF9EFF58
:0548B700900506EFF082
:1048BC00E4A3F0A3122C5500000001E4900507F0CE
:1048CC00900506E0FFA3E0FEC3EF6480F8EE648081
:1048DC00985023A3E0FCA3E0FDA3E0FEA3E0FFE4DB
:1048EC007B0AFAF9F8122BE7900508122C4990056F
:1048FC0007E004F080CA900508E0FCA3E0FDA3E00B
:04490C00FEA3E0FF27
:014910002284
:10500B00759850438E40538EFE53890F758BE07508
:10501B008DFEC2ABD28E43A28053A2BFD2AFD2AC15
:03502B00D2BC22D2
:030023000249117E
:10491100C0E0C0F0C083C082C0D075D000C000C06C
:1049210001C002C003C004C005C006C0073098071B
:10493100C298AF99122D54309923C299900551E034
:10494100FF90054FE0FEC39F501374832EF582E460
:104951003405F583E0F59990054FE004F0D007D0D8
:1049610006D005D004D003D002D001D000D0D0D0E1
:0849710082D083D0F0D0E032C7
:0C51C200E4F592F591C299C29802500BDE
:1036B400E4900518F0A3F0A3F0A3F01251A9123D71
:1036C400C0E4FF124DDD1251E390052F74FFF0A307
:1036D400743AF0A3746BF0E4FBFD7F02123386901E
:1036E400052F74FFF0A3743AF0A37475F07B20E403
:1036F400FD7F0212338690052F74FFF0A3743AF015
:10370400A3747FF07B027D587F0212338690052FCD
:1037140074FFF0A3743AF0A37481F07B207D587F8A
:1037240002123386124D9F1251C21251D91251996D
:103734001251CE125199124B001251EC200C03027B
:1037440037DA7B017A05790E1237FEEF64017036A1
:1037540090050EE0FEA3E0FF90051AEEF0A3EFF053
:10376400900512E0FDA3E0900518CDF0A3EDF0E480
:10377400FD1250AE7F147E00124F54900518A3E042
:10378400FF7D011250AE90051AE0FEA3E0FF7B011D
:103794007A05791C123D00900518E0FEA3E0FF7B3A
:1037A400017A057924123D0090052F7401F0A37469
:1037B40005F0A37424F07B027D487F0212338690C7
:1037C400052F7401F0A37405F0A3741CF07B227D13
:1037D400487F02123386200803023740300906125C
:1037E4003F30023740300A06123FDC023740200BDC
:0A37F40003023740124088023740FC
:030000000244E2D5
:0C44E200787FE4F6D8FD758121024529A1
:10293D00E709F608DFFA8046E709F208DFFA803E7C
:10294D0088828C83E709F0A3DFFA8032E309F60869
:10295D00DFFA8078E309F208DFFA807088828C83D1
:10296D00E309F0A3DFFA806489828A83E0A3F60885
:10297D00DFFA805889828A83E0A3F208DFFA804C5F
:10298D0080D280FA80C680D4806980F28033801036
:10299D0080A680EA809A80A880DA80E280CA80339F
:1029AD0089828A83ECFAE493A3C8C582C8CCC58317
:1029BD00CCF0A3C8C582C8CCC583CCDFE9DEE780E7
:1029CD000D89828A83E493A3F608DFF9ECFAA9F066
:1029DD00EDFB2289828A83ECFAE0A3C8C582C8CCBC
:1029ED00C583CCF0A3C8C582C8CCC583CCDFEADED5
:1029FD00E880DB89828A83E493A3F208DFF980CC37
:102A0D0088F0EF60010E4E60C388F0ED2402B4042F
:102A1D000050B9F582EB2402B4040050AF232345D6
:062A2D00822390298D7345
:102A3300C2D530F707B2D563F0FF05F030E70CB22B
:102A4300D5F4048463F0FF05F080018430D502F4EB
:022A530004225B
:102A5500BB010689828A83E0225002E722BBFE027F
:092A6500E32289828A83E49322B2
:102A6E00BB010CE58229F582E5833AF583E022501D
:102A7E0006E92582F8E622BBFE06E92582F8E22267
:0D2A8E00E58229F582E5833AF583E4932281
:102A9B00BB010689828A83F0225002F722BBFE011A
:022AAB00F32214
:102AAD00F8BB010DE58229F582E5833AF583E8F05F
:102ABD00225006E92582C8F622BBFE05E92582C80B
:022ACD00F222F3
:102ACF00EF8DF0A4A8F0CF8CF0A428CE8DF0A42E1B
:022ADF00FE22D5
:102AE100BC000BBE0029EF8DF084FFADF022E4CCD9
:102AF100F875F008EF2FFFEE33FEEC33FCEE9DECA2
:102B0100984005FCEE9DFE0FD5F0E9E4CEFD22EDE7
:102B1100F8F5F0EE8420D21CFEADF075F008EF2F31
:102B2100FFED33FD4007985006D5F0F222C398FD22
:052B31000FD5F0EA22BF
:102B3600C2D5EC30E709B2D5E4C39DFDE49CFCEEBA
:102B460030E715B2D5E4C39FFFE49EFE122AE1C327
:102B5600E49DFDE49CFC8003122AE130D507C3E422
:062B66009FFFE49EFE2229
:102B6C00C5F0F8A3E028F0C5F0F8E58215827002F4
:062B7C001583E038F02291
:102B8200BB0110E58229F582E5833AF583E0F5F091
:102B9200A3E0225009E92582F886F008E622BBFE6E
:102BA2000AE92582F8E2F5F008E222E5832AF583B4
:082BB200E993F5F0A3E9932279
:102BBA00F8BB0111E58229F582E5833AF583E8F04D
:102BCA00E5F0A3F0225009E92582C8F608A6F0220A
:0D2BDA00BBFE09E92582C8F2E5F008F222F1
:102BE700E88FF0A4CC8BF0A42CFCE98EF0A42CFC8D
:102BF7008AF0EDA42CFCEA8EF0A4CDA8F08BF0A40B
:102C07002DCC3825F0FDE98FF0A42CCD35F0FCEB69
:102C17008EF0A4FEA9F0EB8FF0A4CFC5F02ECD392E
:0F2C2700FEE43CFCEAA42DCE35F0FDE43CFC229B
:104D5B00C2D5E830E70FB2D5E4C39BFBE49AFAE483
:104D6B0099F9E498F8EC30E717B2D5124D91122C63
:104D7B00C2E4C39BFBE49AFAE499F9E498F8800344
:104D8B00122CC230D50DE4C39FFFE49EFEE49DFDC3
:044D9B00E49CFC2276
:102C3600E8600FECC313FCED13FDEE13FEEF13FF7C
:032C4600D8F122A0
:0C2C4900ECF0A3EDF0A3EEF0A3EFF022FE
:102C5500A8828583F0D083D082122C6C122C6C1242
:102C65002C6C122C6CE473E493A3C583C5F0C58367
:102C7500C8C582C8F0A3C583C5F0C583C8C582C8C9
:012C8500222C
:1044EE000236B4E493A3F8E493A34003F68001F2FA
:1044FE0008DFF48029E493A3F85407240CC8C333CF
:10450E00C4540F4420C8834004F456800146F6DF9D
:10451E00E4800B0102040810204080904452E47E97
:10452E00019360BCA3FF543F30E509541FFEE49392
:10453E00A360010ECF54C025E060A840B8E493A359
:10454E00FAE493A3F8E493A3C8C582C8CAC583CA84
:10455E00F0A3C8C582C8CAC583CADFE9DEE780BE3C
:0144E10000DA
:102C860075F008758200EF2FFFEE33FECD33CDCC05
:102C960033CCC58233C5829BED9AEC99E582984088
:102CA6000CF582EE9BFEED9AFDEC99FC0FD5F0D665
:102CB600E4CEFBE4CDFAE4CCF9A88222B800C1B98F
:102CC6000059BA002DEC8BF084CFCECDFCE5F0CBCD
:102CD600F97818EF2FFFEE33FEED33FDEC33FCEB06
:102CE60033FB10D703994004EB99FB0FD8E5E4F9C1
:102CF600FA227818EF2FFFEE33FEED33FDEC33FCAE
:102D0600C933C910D7059BE99A4007EC9BFCE99AA1
:102D1600F90FD8E0E4C9FAE4CCFB2275F010EF2FE6
:102D2600FFEE33FEED33FDCC33CCC833C810D707E6
:102D36009BEC9AE899400AED9BFDEC9AFCE899F821
:0E2D46000FD5F0DAE4CDFBE4CCFAE4C8F922B4
:00000001FF
